{
  "contractName": "Dex",
  "abi": [
    {
      "anonymous": false,
      "inputs": [
        {
          "indexed": false,
          "internalType": "uint256",
          "name": "id",
          "type": "uint256"
        },
        {
          "indexed": true,
          "internalType": "bytes32",
          "name": "ticker",
          "type": "bytes32"
        },
        {
          "indexed": true,
          "internalType": "uint256",
          "name": "price",
          "type": "uint256"
        },
        {
          "indexed": true,
          "internalType": "uint256",
          "name": "side",
          "type": "uint256"
        },
        {
          "indexed": false,
          "internalType": "uint256",
          "name": "amount",
          "type": "uint256"
        }
      ],
      "name": "OrderCreated",
      "type": "event"
    },
    {
      "anonymous": false,
      "inputs": [
        {
          "indexed": true,
          "internalType": "address",
          "name": "previousOwner",
          "type": "address"
        },
        {
          "indexed": true,
          "internalType": "address",
          "name": "newOwner",
          "type": "address"
        }
      ],
      "name": "OwnershipTransferred",
      "type": "event"
    },
    {
      "anonymous": false,
      "inputs": [
        {
          "indexed": false,
          "internalType": "uint256",
          "name": "id",
          "type": "uint256"
        },
        {
          "indexed": true,
          "internalType": "bytes32",
          "name": "ticker",
          "type": "bytes32"
        },
        {
          "indexed": true,
          "internalType": "uint256",
          "name": "price",
          "type": "uint256"
        },
        {
          "indexed": false,
          "internalType": "uint256",
          "name": "amount",
          "type": "uint256"
        },
        {
          "indexed": false,
          "internalType": "address",
          "name": "seller",
          "type": "address"
        },
        {
          "indexed": false,
          "internalType": "address",
          "name": "buyer",
          "type": "address"
        },
        {
          "indexed": false,
          "internalType": "uint256",
          "name": "timestamp",
          "type": "uint256"
        }
      ],
      "name": "Trade",
      "type": "event"
    },
    {
      "inputs": [
        {
          "internalType": "bytes32",
          "name": "",
          "type": "bytes32"
        },
        {
          "internalType": "uint256",
          "name": "",
          "type": "uint256"
        },
        {
          "internalType": "uint256",
          "name": "",
          "type": "uint256"
        }
      ],
      "name": "limitOrders",
      "outputs": [
        {
          "internalType": "uint256",
          "name": "id",
          "type": "uint256"
        },
        {
          "internalType": "bytes32",
          "name": "ticker",
          "type": "bytes32"
        },
        {
          "internalType": "uint256",
          "name": "amount",
          "type": "uint256"
        },
        {
          "internalType": "uint256",
          "name": "filled",
          "type": "uint256"
        },
        {
          "internalType": "uint256",
          "name": "price",
          "type": "uint256"
        },
        {
          "internalType": "uint256",
          "name": "side",
          "type": "uint256"
        },
        {
          "internalType": "address",
          "name": "trader",
          "type": "address"
        }
      ],
      "stateMutability": "view",
      "type": "function",
      "constant": true
    },
    {
      "inputs": [],
      "name": "owner",
      "outputs": [
        {
          "internalType": "address",
          "name": "",
          "type": "address"
        }
      ],
      "stateMutability": "view",
      "type": "function",
      "constant": true
    },
    {
      "inputs": [],
      "name": "renounceOwnership",
      "outputs": [],
      "stateMutability": "nonpayable",
      "type": "function"
    },
    {
      "inputs": [
        {
          "internalType": "address",
          "name": "",
          "type": "address"
        },
        {
          "internalType": "bytes32",
          "name": "",
          "type": "bytes32"
        }
      ],
      "name": "traderBalances",
      "outputs": [
        {
          "internalType": "uint256",
          "name": "",
          "type": "uint256"
        }
      ],
      "stateMutability": "view",
      "type": "function",
      "constant": true
    },
    {
      "inputs": [
        {
          "internalType": "address",
          "name": "newOwner",
          "type": "address"
        }
      ],
      "name": "transferOwnership",
      "outputs": [],
      "stateMutability": "nonpayable",
      "type": "function"
    },
    {
      "inputs": [
        {
          "internalType": "bytes32",
          "name": "ticker",
          "type": "bytes32"
        },
        {
          "internalType": "enum Dex.Side",
          "name": "side",
          "type": "uint8"
        },
        {
          "internalType": "uint256",
          "name": "amount",
          "type": "uint256"
        }
      ],
      "name": "createMarketOrder",
      "outputs": [],
      "stateMutability": "nonpayable",
      "type": "function"
    },
    {
      "inputs": [
        {
          "internalType": "bytes32",
          "name": "ticker",
          "type": "bytes32"
        },
        {
          "internalType": "enum Dex.Side",
          "name": "side",
          "type": "uint8"
        },
        {
          "internalType": "uint256",
          "name": "amount",
          "type": "uint256"
        },
        {
          "internalType": "uint256",
          "name": "price",
          "type": "uint256"
        }
      ],
      "name": "createLimitOrder",
      "outputs": [],
      "stateMutability": "nonpayable",
      "type": "function"
    },
    {
      "inputs": [
        {
          "internalType": "bytes32",
          "name": "ticker",
          "type": "bytes32"
        },
        {
          "internalType": "uint256",
          "name": "amount",
          "type": "uint256"
        }
      ],
      "name": "deposit",
      "outputs": [],
      "stateMutability": "nonpayable",
      "type": "function"
    },
    {
      "inputs": [
        {
          "internalType": "bytes32",
          "name": "ticker",
          "type": "bytes32"
        },
        {
          "internalType": "uint256",
          "name": "amount",
          "type": "uint256"
        }
      ],
      "name": "withdraw",
      "outputs": [],
      "stateMutability": "nonpayable",
      "type": "function"
    },
    {
      "inputs": [
        {
          "internalType": "bytes32",
          "name": "ticker",
          "type": "bytes32"
        },
        {
          "internalType": "enum Dex.Side",
          "name": "side",
          "type": "uint8"
        }
      ],
      "name": "getOrders",
      "outputs": [
        {
          "components": [
            {
              "internalType": "uint256",
              "name": "id",
              "type": "uint256"
            },
            {
              "internalType": "bytes32",
              "name": "ticker",
              "type": "bytes32"
            },
            {
              "internalType": "uint256",
              "name": "amount",
              "type": "uint256"
            },
            {
              "internalType": "uint256",
              "name": "filled",
              "type": "uint256"
            },
            {
              "internalType": "uint256",
              "name": "price",
              "type": "uint256"
            },
            {
              "internalType": "uint256",
              "name": "side",
              "type": "uint256"
            },
            {
              "internalType": "address",
              "name": "trader",
              "type": "address"
            }
          ],
          "internalType": "struct Dex.Order[]",
          "name": "",
          "type": "tuple[]"
        }
      ],
      "stateMutability": "view",
      "type": "function",
      "constant": true
    },
    {
      "inputs": [],
      "name": "getTokens",
      "outputs": [
        {
          "components": [
            {
              "internalType": "bytes32",
              "name": "ticker",
              "type": "bytes32"
            },
            {
              "internalType": "address",
              "name": "tokenAddress",
              "type": "address"
            }
          ],
          "internalType": "struct Dex.Token[]",
          "name": "",
          "type": "tuple[]"
        }
      ],
      "stateMutability": "view",
      "type": "function",
      "constant": true
    },
    {
      "inputs": [
        {
          "internalType": "bytes32",
          "name": "ticker",
          "type": "bytes32"
        },
        {
          "internalType": "address",
          "name": "tokenAddress",
          "type": "address"
        }
      ],
      "name": "addToken",
      "outputs": [],
      "stateMutability": "nonpayable",
      "type": "function"
    }
  ],
  "bytecode": "0x6080604052600060055560006006557f44414900000000000000000000000000000000000000000000000000000000006007553480156200003f57600080fd5b50600062000052620000f660201b60201c565b9050806000806101000a81548173ffffffffffffffffffffffffffffffffffffffff021916908373ffffffffffffffffffffffffffffffffffffffff1602179055508073ffffffffffffffffffffffffffffffffffffffff16600073ffffffffffffffffffffffffffffffffffffffff167f8be0079c531659141344cd1fd0a4f28419497f9722a3daafe3b4186f6b6457e060405160405180910390a350620000fe565b600033905090565b6135e5806200010e6000396000f3fe608060405234801561001057600080fd5b50600436106100b45760003560e01c806372ce957e1161007157806372ce957e1461017d5780638da5cb5b146101ad5780639776aacf146101cb578063aa6ca808146101e7578063ed25c4d314610205578063f2fde38b14610221576100b4565b8063040cf020146100b95780631afd3f65146100d55780631de26e161461010b57806346e9658b1461012757806350b20afd14610157578063715018a614610173575b600080fd5b6100d360048036038101906100ce9190612a9a565b61023d565b005b6100ef60048036038101906100ea9190612ad6565b610430565b60405161010297969594939291906132d8565b60405180910390f35b61012560048036038101906101209190612a9a565b6104b9565b005b610141600480360381019061013c91906129ac565b610694565b60405161014e91906130f7565b60405180910390f35b610171600480360381019061016c91906129e8565b610856565b005b61017b6117b6565b005b6101976004803603810190610192919061290b565b6118f0565b6040516101a491906132bd565b60405180910390f35b6101b5611915565b6040516101c2919061307c565b60405180910390f35b6101e560048036038101906101e09190612970565b61193e565b005b6101ef611ad2565b6040516101fc9190613119565b60405180910390f35b61021f600480360381019061021a9190612a37565b611bff565b005b61023b600480360381019061023691906128e2565b612545565b005b8180600160008381526020019081526020016000206000015414610296576040517f08c379a000000000000000000000000000000000000000000000000000000000815260040161028d9061321d565b60405180910390fd5b6103138260405180606001604052806026815260200161358a60269139600360003373ffffffffffffffffffffffffffffffffffffffff1673ffffffffffffffffffffffffffffffffffffffff1681526020019081526020016000206000878152602001908152602001600020546126ee9092919063ffffffff16565b600360003373ffffffffffffffffffffffffffffffffffffffff1673ffffffffffffffffffffffffffffffffffffffff1681526020019081526020016000206000858152602001908152602001600020819055506001600084815260200190815260200160002060010160009054906101000a900473ffffffffffffffffffffffffffffffffffffffff1673ffffffffffffffffffffffffffffffffffffffff1663a9059cbb33846040518363ffffffff1660e01b81526004016103d89291906130ce565b602060405180830381600087803b1580156103f257600080fd5b505af1158015610406573d6000803e3d6000fd5b505050506040513d601f19601f8201168201806040525081019061042a9190612947565b50505050565b6004602052826000526040600020602052816000526040600020818154811061045557fe5b906000526020600020906007020160009250925050508060000154908060010154908060020154908060030154908060040154908060050154908060060160009054906101000a900473ffffffffffffffffffffffffffffffffffffffff16905087565b8180600160008381526020019081526020016000206000015414610512576040517f08c379a00000000000000000000000000000000000000000000000000000000081526004016105099061321d565b60405180910390fd5b6001600084815260200190815260200160002060010160009054906101000a900473ffffffffffffffffffffffffffffffffffffffff1673ffffffffffffffffffffffffffffffffffffffff166323b872dd3330856040518463ffffffff1660e01b815260040161058593929190613097565b602060405180830381600087803b15801561059f57600080fd5b505af11580156105b3573d6000803e3d6000fd5b505050506040513d601f19601f820116820180604052508101906105d79190612947565b5061063b82600360003373ffffffffffffffffffffffffffffffffffffffff1673ffffffffffffffffffffffffffffffffffffffff16815260200190815260200160002060008681526020019081526020016000205461274390919063ffffffff16565b600360003373ffffffffffffffffffffffffffffffffffffffff1673ffffffffffffffffffffffffffffffffffffffff168152602001908152602001600020600085815260200190815260200160002081905550505050565b606082806001600083815260200190815260200160002060000154146106ef576040517f08c379a00000000000000000000000000000000000000000000000000000000081526004016106e69061321d565b60405180910390fd5b83600754811415610735576040517f08c379a000000000000000000000000000000000000000000000000000000000815260040161072c9061325d565b60405180910390fd5b60046000868152602001908152602001600020600085600181111561075657fe5b8152602001908152602001600020805480602002602001604051908101604052809291908181526020016000905b8282101561084857838290600052602060002090600702016040518060e00160405290816000820154815260200160018201548152602001600282015481526020016003820154815260200160048201548152602001600582015481526020016006820160009054906101000a900473ffffffffffffffffffffffffffffffffffffffff1673ffffffffffffffffffffffffffffffffffffffff1673ffffffffffffffffffffffffffffffffffffffff168152505081526020019060010190610784565b505050509250505092915050565b82806001600083815260200190815260200160002060000154146108af576040517f08c379a00000000000000000000000000000000000000000000000000000000081526004016108a69061321d565b60405180910390fd5b836007548114156108f5576040517f08c379a00000000000000000000000000000000000000000000000000000000081526004016108ec9061325d565b60405180910390fd5b60018081111561090157fe5b84600181111561090d57fe5b14156109a757600360003373ffffffffffffffffffffffffffffffffffffffff1673ffffffffffffffffffffffffffffffffffffffff1681526020019081526020016000206000868152602001908152602001600020548311156109a6576040517f08c379a000000000000000000000000000000000000000000000000000000000815260040161099d9061329d565b60405180910390fd5b5b60006001808111156109b557fe5b8560018111156109c157fe5b14156109fd576004600087815260200190815260200160002060008060018111156109e857fe5b81526020019081526020016000209050610a4f565b60006001811115610a0a57fe5b856001811115610a1657fe5b1415610a4e57600460008781526020019081526020016000206000600180811115610a3d57fe5b815260200190815260200160002090505b5b600084905060005b828054905081108015610a6a5750600082115b156115dd57600082848381548110610a7e57fe5b906000526020600020906007020160030154858481548110610a9c57fe5b9060005260206000209060070201600201540311610af657838281548110610ac057fe5b906000526020600020906007020160030154848381548110610ade57fe5b90600052602060002090600702016002015403610af8565b825b9050610b0d818461279890919063ffffffff16565b925080848381548110610b1c57fe5b90600052602060002090600702016003015401848381548110610b3b57fe5b906000526020600020906007020160030181905550600180811115610b5c57fe5b886001811115610b6857fe5b1415610f8957610bd181600360003373ffffffffffffffffffffffffffffffffffffffff1673ffffffffffffffffffffffffffffffffffffffff16815260200190815260200160002060008c81526020019081526020016000205461279890919063ffffffff16565b600360003373ffffffffffffffffffffffffffffffffffffffff1673ffffffffffffffffffffffffffffffffffffffff16815260200190815260200160002060008b815260200190815260200160002081905550610ca9848381548110610c3457fe5b9060005260206000209060070201600401548202600360003373ffffffffffffffffffffffffffffffffffffffff1673ffffffffffffffffffffffffffffffffffffffff168152602001908152602001600020600060075481526020019081526020016000205461274390919063ffffffff16565b600360003373ffffffffffffffffffffffffffffffffffffffff1673ffffffffffffffffffffffffffffffffffffffff1681526020019081526020016000206000600754815260200190815260200160002081905550610d9f8160036000878681548110610d1357fe5b906000526020600020906007020160060160009054906101000a900473ffffffffffffffffffffffffffffffffffffffff1673ffffffffffffffffffffffffffffffffffffffff1673ffffffffffffffffffffffffffffffffffffffff16815260200190815260200160002060008c81526020019081526020016000205461274390919063ffffffff16565b60036000868581548110610daf57fe5b906000526020600020906007020160060160009054906101000a900473ffffffffffffffffffffffffffffffffffffffff1673ffffffffffffffffffffffffffffffffffffffff1673ffffffffffffffffffffffffffffffffffffffff16815260200190815260200160002060008b815260200190815260200160002081905550610ef1848381548110610e3f57fe5b906000526020600020906007020160040154820260036000878681548110610e6357fe5b906000526020600020906007020160060160009054906101000a900473ffffffffffffffffffffffffffffffffffffffff1673ffffffffffffffffffffffffffffffffffffffff1673ffffffffffffffffffffffffffffffffffffffff168152602001908152602001600020600060075481526020019081526020016000205461279890919063ffffffff16565b60036000868581548110610f0157fe5b906000526020600020906007020160060160009054906101000a900473ffffffffffffffffffffffffffffffffffffffff1673ffffffffffffffffffffffffffffffffffffffff1673ffffffffffffffffffffffffffffffffffffffff1681526020019081526020016000206000600754815260200190815260200160002081905550611474565b60006001811115610f9657fe5b886001811115610fa257fe5b141561147357838281548110610fb457fe5b9060005260206000209060070201600401548102600360003373ffffffffffffffffffffffffffffffffffffffff1673ffffffffffffffffffffffffffffffffffffffff1681526020019081526020016000206000600754815260200190815260200160002054101561105c576040517f08c379a00000000000000000000000000000000000000000000000000000000081526004016110539061323d565b60405180910390fd5b6110bf81600360003373ffffffffffffffffffffffffffffffffffffffff1673ffffffffffffffffffffffffffffffffffffffff16815260200190815260200160002060008c81526020019081526020016000205461274390919063ffffffff16565b600360003373ffffffffffffffffffffffffffffffffffffffff1673ffffffffffffffffffffffffffffffffffffffff16815260200190815260200160002060008b81526020019081526020016000208190555061119784838154811061112257fe5b9060005260206000209060070201600401548202600360003373ffffffffffffffffffffffffffffffffffffffff1673ffffffffffffffffffffffffffffffffffffffff168152602001908152602001600020600060075481526020019081526020016000205461279890919063ffffffff16565b600360003373ffffffffffffffffffffffffffffffffffffffff1673ffffffffffffffffffffffffffffffffffffffff168152602001908152602001600020600060075481526020019081526020016000208190555061128d816003600087868154811061120157fe5b906000526020600020906007020160060160009054906101000a900473ffffffffffffffffffffffffffffffffffffffff1673ffffffffffffffffffffffffffffffffffffffff1673ffffffffffffffffffffffffffffffffffffffff16815260200190815260200160002060008c81526020019081526020016000205461279890919063ffffffff16565b6003600086858154811061129d57fe5b906000526020600020906007020160060160009054906101000a900473ffffffffffffffffffffffffffffffffffffffff1673ffffffffffffffffffffffffffffffffffffffff1673ffffffffffffffffffffffffffffffffffffffff16815260200190815260200160002060008b8152602001908152602001600020819055506113df84838154811061132d57fe5b90600052602060002090600702016004015482026003600087868154811061135157fe5b906000526020600020906007020160060160009054906101000a900473ffffffffffffffffffffffffffffffffffffffff1673ffffffffffffffffffffffffffffffffffffffff1673ffffffffffffffffffffffffffffffffffffffff168152602001908152602001600020600060075481526020019081526020016000205461274390919063ffffffff16565b600360008685815481106113ef57fe5b906000526020600020906007020160060160009054906101000a900473ffffffffffffffffffffffffffffffffffffffff1673ffffffffffffffffffffffffffffffffffffffff1673ffffffffffffffffffffffffffffffffffffffff16815260200190815260200160002060006007548152602001908152602001600020819055505b5b83828154811061148057fe5b906000526020600020906007020160040154897f8c6cb3c5c36fa5898c39470d1bd0bcd625d58235fee8c2485493802b4219b8226006548786815481106114c357fe5b9060005260206000209060070201600201546001808111156114e157fe5b8d60018111156114ed57fe5b14611535578887815481106114fe57fe5b906000526020600020906007020160060160009054906101000a900473ffffffffffffffffffffffffffffffffffffffff16611537565b335b60018081111561154357fe5b8e600181111561154f57fe5b1461155a5733611599565b89888154811061156657fe5b906000526020600020906007020160060160009054906101000a900473ffffffffffffffffffffffffffffffffffffffff165b426040516115ab959493929190613370565b60405180910390a36115c9600160065461274390919063ffffffff16565b600681905550818060010192505050610a57565b5b6000838054905011801561162d5750826000815481106115fa57fe5b9060005260206000209060070201600301548360008154811061161957fe5b906000526020600020906007020160020154145b156117ac57600190505b828054905081101561172d5782818154811061164f57fe5b906000526020600020906007020183600183038154811061166c57fe5b90600052602060002090600702016000820154816000015560018201548160010155600282015481600201556003820154816003015560048201548160040155600582015481600501556006820160009054906101000a900473ffffffffffffffffffffffffffffffffffffffff168160060160006101000a81548173ffffffffffffffffffffffffffffffffffffffff021916908373ffffffffffffffffffffffffffffffffffffffff1602179055509050508080600101915050611637565b8280548061173757fe5b6001900381819060005260206000209060070201600080820160009055600182016000905560028201600090556003820160009055600482016000905560058201600090556006820160006101000a81549073ffffffffffffffffffffffffffffffffffffffff0219169055505090556115de565b5050505050505050565b6117be6127e8565b73ffffffffffffffffffffffffffffffffffffffff166117dc611915565b73ffffffffffffffffffffffffffffffffffffffff1614611832576040517f08c379a0000000000000000000000000000000000000000000000000000000008152600401611829906131fd565b60405180910390fd5b600073ffffffffffffffffffffffffffffffffffffffff1660008054906101000a900473ffffffffffffffffffffffffffffffffffffffff1673ffffffffffffffffffffffffffffffffffffffff167f8be0079c531659141344cd1fd0a4f28419497f9722a3daafe3b4186f6b6457e060405160405180910390a360008060006101000a81548173ffffffffffffffffffffffffffffffffffffffff021916908373ffffffffffffffffffffffffffffffffffffffff160217905550565b6003602052816000526040600020602052806000526040600020600091509150505481565b60008060009054906101000a900473ffffffffffffffffffffffffffffffffffffffff16905090565b6119466127e8565b73ffffffffffffffffffffffffffffffffffffffff16611964611915565b73ffffffffffffffffffffffffffffffffffffffff16146119ba576040517f08c379a00000000000000000000000000000000000000000000000000000000081526004016119b1906131fd565b60405180910390fd5b8160016000848152602001908152602001600020600001541415611a13576040517f08c379a0000000000000000000000000000000000000000000000000000000008152600401611a0a9061315d565b60405180910390fd5b60405180604001604052808381526020018273ffffffffffffffffffffffffffffffffffffffff16815250600160008481526020019081526020016000206000820151816000015560208201518160010160006101000a81548173ffffffffffffffffffffffffffffffffffffffff021916908373ffffffffffffffffffffffffffffffffffffffff16021790555090505060028290806001815401808255809150506001900390600052602060002001600090919091909150555050565b60608060028054905067ffffffffffffffff81118015611af157600080fd5b50604051908082528060200260200182016040528015611b2b57816020015b611b186127f0565b815260200190600190039081611b105790505b50905060005b600280549050811015611bf7576001600060028381548110611b4f57fe5b90600052602060002001548152602001908152602001600020604051806040016040529081600082015481526020016001820160009054906101000a900473ffffffffffffffffffffffffffffffffffffffff1673ffffffffffffffffffffffffffffffffffffffff1673ffffffffffffffffffffffffffffffffffffffff1681525050828281518110611bdf57fe5b60200260200101819052508080600101915050611b31565b508091505090565b8380600160008381526020019081526020016000206000015414611c58576040517f08c379a0000000000000000000000000000000000000000000000000000000008152600401611c4f9061321d565b60405180910390fd5b84600754811415611c9e576040517f08c379a0000000000000000000000000000000000000000000000000000000008152600401611c959061325d565b60405180910390fd5b600180811115611caa57fe5b856001811115611cb657fe5b1415611d545783600360003373ffffffffffffffffffffffffffffffffffffffff1673ffffffffffffffffffffffffffffffffffffffff1681526020019081526020016000206000888152602001908152602001600020541015611d4f576040517f08c379a0000000000000000000000000000000000000000000000000000000008152600401611d46906131dd565b60405180910390fd5b611e0c565b60006001811115611d6157fe5b856001811115611d6d57fe5b1415611e0b57828402600360003373ffffffffffffffffffffffffffffffffffffffff1673ffffffffffffffffffffffffffffffffffffffff16815260200190815260200160002060006007548152602001908152602001600020541015611e0a576040517f08c379a0000000000000000000000000000000000000000000000000000000008152600401611e019061327d565b60405180910390fd5b5b5b6000600460008881526020019081526020016000206000876001811115611e2f57fe5b81526020019081526020016000209050806040518060e00160405280600554815260200189815260200187815260200160008152602001868152602001886001811115611e7857fe5b81526020013373ffffffffffffffffffffffffffffffffffffffff168152509080600181540180825580915050600190039060005260206000209060070201600090919091909150600082015181600001556020820151816001015560408201518160020155606082015181600301556080820151816004015560a0820151816005015560c08201518160060160006101000a81548173ffffffffffffffffffffffffffffffffffffffff021916908373ffffffffffffffffffffffffffffffffffffffff1602179055505050856001811115611f5157fe5b84887f48f734d7229bc924e7b6e26d3ebfc4f57c0f29ed879a8c895db1a658d3b3272860055489604051611f86929190613347565b60405180910390a4611fa4600160055461274390919063ffffffff16565b5060006001828054905003905060006001811115611fbe57fe5b876001811115611fca57fe5b1415612278575b60008111801561201d5750816001820381548110611feb57fe5b90600052602060002090600702016004015482828154811061200957fe5b906000526020600020906007020160040154115b156122735761202a612823565b82828154811061203657fe5b90600052602060002090600702016040518060e00160405290816000820154815260200160018201548152602001600282015481526020016003820154815260200160048201548152602001600582015481526020016006820160009054906101000a900473ffffffffffffffffffffffffffffffffffffffff1673ffffffffffffffffffffffffffffffffffffffff1673ffffffffffffffffffffffffffffffffffffffff168152505090508260018303815481106120f257fe5b906000526020600020906007020183838154811061210c57fe5b90600052602060002090600702016000820154816000015560018201548160010155600282015481600201556003820154816003015560048201548160040155600582015481600501556006820160009054906101000a900473ffffffffffffffffffffffffffffffffffffffff168160060160006101000a81548173ffffffffffffffffffffffffffffffffffffffff021916908373ffffffffffffffffffffffffffffffffffffffff160217905550905050808360018403815481106121d057fe5b9060005260206000209060070201600082015181600001556020820151816001015560408201518160020155606082015181600301556080820151816004015560a0820151816005015560c08201518160060160006101000a81548173ffffffffffffffffffffffffffffffffffffffff021916908373ffffffffffffffffffffffffffffffffffffffff16021790555090505081806001900392505050611fd1565b61253b565b60018081111561228457fe5b87600181111561229057fe5b141561253a575b6000811180156122e357508160018203815481106122b157fe5b9060005260206000209060070201600401548282815481106122cf57fe5b906000526020600020906007020160040154105b15612539576122f0612823565b8282815481106122fc57fe5b90600052602060002090600702016040518060e00160405290816000820154815260200160018201548152602001600282015481526020016003820154815260200160048201548152602001600582015481526020016006820160009054906101000a900473ffffffffffffffffffffffffffffffffffffffff1673ffffffffffffffffffffffffffffffffffffffff1673ffffffffffffffffffffffffffffffffffffffff168152505090508260018303815481106123b857fe5b90600052602060002090600702018383815481106123d257fe5b90600052602060002090600702016000820154816000015560018201548160010155600282015481600201556003820154816003015560048201548160040155600582015481600501556006820160009054906101000a900473ffffffffffffffffffffffffffffffffffffffff168160060160006101000a81548173ffffffffffffffffffffffffffffffffffffffff021916908373ffffffffffffffffffffffffffffffffffffffff1602179055509050508083600184038154811061249657fe5b9060005260206000209060070201600082015181600001556020820151816001015560408201518160020155606082015181600301556080820151816004015560a0820151816005015560c08201518160060160006101000a81548173ffffffffffffffffffffffffffffffffffffffff021916908373ffffffffffffffffffffffffffffffffffffffff16021790555090505081806001900392505050612297565b5b5b5050505050505050565b61254d6127e8565b73ffffffffffffffffffffffffffffffffffffffff1661256b611915565b73ffffffffffffffffffffffffffffffffffffffff16146125c1576040517f08c379a00000000000000000000000000000000000000000000000000000000081526004016125b8906131fd565b60405180910390fd5b600073ffffffffffffffffffffffffffffffffffffffff168173ffffffffffffffffffffffffffffffffffffffff161415612631576040517f08c379a00000000000000000000000000000000000000000000000000000000081526004016126289061317d565b60405180910390fd5b8073ffffffffffffffffffffffffffffffffffffffff1660008054906101000a900473ffffffffffffffffffffffffffffffffffffffff1673ffffffffffffffffffffffffffffffffffffffff167f8be0079c531659141344cd1fd0a4f28419497f9722a3daafe3b4186f6b6457e060405160405180910390a3806000806101000a81548173ffffffffffffffffffffffffffffffffffffffff021916908373ffffffffffffffffffffffffffffffffffffffff16021790555050565b6000838311158290612736576040517f08c379a000000000000000000000000000000000000000000000000000000000815260040161272d919061313b565b60405180910390fd5b5082840390509392505050565b60008082840190508381101561278e576040517f08c379a00000000000000000000000000000000000000000000000000000000081526004016127859061319d565b60405180910390fd5b8091505092915050565b6000828211156127dd576040517f08c379a00000000000000000000000000000000000000000000000000000000081526004016127d4906131bd565b60405180910390fd5b818303905092915050565b600033905090565b604051806040016040528060008019168152602001600073ffffffffffffffffffffffffffffffffffffffff1681525090565b6040518060e00160405280600081526020016000801916815260200160008152602001600081526020016000815260200160008152602001600073ffffffffffffffffffffffffffffffffffffffff1681525090565b6000813590506128888161351d565b92915050565b60008151905061289d81613534565b92915050565b6000813590506128b28161354b565b92915050565b6000813590506128c781613562565b92915050565b6000813590506128dc81613572565b92915050565b6000602082840312156128f457600080fd5b600061290284828501612879565b91505092915050565b6000806040838503121561291e57600080fd5b600061292c85828601612879565b925050602061293d858286016128a3565b9150509250929050565b60006020828403121561295957600080fd5b60006129678482850161288e565b91505092915050565b6000806040838503121561298357600080fd5b6000612991858286016128a3565b92505060206129a285828601612879565b9150509250929050565b600080604083850312156129bf57600080fd5b60006129cd858286016128a3565b92505060206129de858286016128b8565b9150509250929050565b6000806000606084860312156129fd57600080fd5b6000612a0b868287016128a3565b9350506020612a1c868287016128b8565b9250506040612a2d868287016128cd565b9150509250925092565b60008060008060808587031215612a4d57600080fd5b6000612a5b878288016128a3565b9450506020612a6c878288016128b8565b9350506040612a7d878288016128cd565b9250506060612a8e878288016128cd565b91505092959194509250565b60008060408385031215612aad57600080fd5b6000612abb858286016128a3565b9250506020612acc858286016128cd565b9150509250929050565b600080600060608486031215612aeb57600080fd5b6000612af9868287016128a3565b9350506020612b0a868287016128cd565b9250506040612b1b868287016128cd565b9150509250925092565b6000612b318383612fa1565b60e08301905092915050565b6000612b49838361302f565b60408301905092915050565b612b5e816134a3565b82525050565b612b6d81613451565b82525050565b612b7c81613451565b82525050565b6000612b8d826133e3565b612b97818561341e565b9350612ba2836133c3565b8060005b83811015612bd3578151612bba8882612b25565b9750612bc583613404565b925050600181019050612ba6565b5085935050505092915050565b6000612beb826133ee565b612bf5818561342f565b9350612c00836133d3565b8060005b83811015612c31578151612c188882612b3d565b9750612c2383613411565b925050600181019050612c04565b5085935050505092915050565b612c478161346f565b82525050565b612c568161346f565b82525050565b6000612c67826133f9565b612c718185613440565b9350612c818185602086016134d9565b612c8a8161350c565b840191505092915050565b6000612ca2602483613440565b91507f4465783a2043616e2774206f7665727772697465206578697374696e6720746f60008301527f6b656e2e000000000000000000000000000000000000000000000000000000006020830152604082019050919050565b6000612d08602683613440565b91507f4f776e61626c653a206e6577206f776e657220697320746865207a65726f206160008301527f64647265737300000000000000000000000000000000000000000000000000006020830152604082019050919050565b6000612d6e601b83613440565b91507f536166654d6174683a206164646974696f6e206f766572666c6f7700000000006000830152602082019050919050565b6000612dae601e83613440565b91507f536166654d6174683a207375627472616374696f6e206f766572666c6f7700006000830152602082019050919050565b6000612dee601783613440565b91507f4465783a206e6f7420656e6f7567682062616c616e63650000000000000000006000830152602082019050919050565b6000612e2e602083613440565b91507f4f776e61626c653a2063616c6c6572206973206e6f7420746865206f776e65726000830152602082019050919050565b6000612e6e601f83613440565b91507f4465783a20546f6b656e2068617320746f2062652072656769737465726564006000830152602082019050919050565b6000612eae601a83613440565b91507f4465783a204e6f7420656e6f7567682044414920746f206275790000000000006000830152602082019050919050565b6000612eee601e83613440565b91507f4465783a2043616e2774206372617465206f7264657220666f722044414900006000830152602082019050919050565b6000612f2e601b83613440565b91507f4465783a206e6f7420656e6f756768204441492062616c616e636500000000006000830152602082019050919050565b6000612f6e601783613440565b91507f4465783a204e6f7420656e6f7567682062616c616e63650000000000000000006000830152602082019050919050565b60e082016000820151612fb7600085018261305e565b506020820151612fca6020850182612c3e565b506040820151612fdd604085018261305e565b506060820151612ff0606085018261305e565b506080820151613003608085018261305e565b5060a082015161301660a085018261305e565b5060c082015161302960c0850182612b64565b50505050565b6040820160008201516130456000850182612c3e565b5060208201516130586020850182612b64565b50505050565b61306781613499565b82525050565b61307681613499565b82525050565b60006020820190506130916000830184612b73565b92915050565b60006060820190506130ac6000830186612b55565b6130b96020830185612b73565b6130c6604083018461306d565b949350505050565b60006040820190506130e36000830185612b55565b6130f0602083018461306d565b9392505050565b600060208201905081810360008301526131118184612b82565b905092915050565b600060208201905081810360008301526131338184612be0565b905092915050565b600060208201905081810360008301526131558184612c5c565b905092915050565b6000602082019050818103600083015261317681612c95565b9050919050565b6000602082019050818103600083015261319681612cfb565b9050919050565b600060208201905081810360008301526131b681612d61565b9050919050565b600060208201905081810360008301526131d681612da1565b9050919050565b600060208201905081810360008301526131f681612de1565b9050919050565b6000602082019050818103600083015261321681612e21565b9050919050565b6000602082019050818103600083015261323681612e61565b9050919050565b6000602082019050818103600083015261325681612ea1565b9050919050565b6000602082019050818103600083015261327681612ee1565b9050919050565b6000602082019050818103600083015261329681612f21565b9050919050565b600060208201905081810360008301526132b681612f61565b9050919050565b60006020820190506132d2600083018461306d565b92915050565b600060e0820190506132ed600083018a61306d565b6132fa6020830189612c4d565b613307604083018861306d565b613314606083018761306d565b613321608083018661306d565b61332e60a083018561306d565b61333b60c0830184612b73565b98975050505050505050565b600060408201905061335c600083018561306d565b613369602083018461306d565b9392505050565b600060a082019050613385600083018861306d565b613392602083018761306d565b61339f6040830186612b73565b6133ac6060830185612b73565b6133b9608083018461306d565b9695505050505050565b6000819050602082019050919050565b6000819050602082019050919050565b600081519050919050565b600081519050919050565b600081519050919050565b6000602082019050919050565b6000602082019050919050565b600082825260208201905092915050565b600082825260208201905092915050565b600082825260208201905092915050565b600061345c82613479565b9050919050565b60008115159050919050565b6000819050919050565b600073ffffffffffffffffffffffffffffffffffffffff82169050919050565b6000819050919050565b60006134ae826134b5565b9050919050565b60006134c0826134c7565b9050919050565b60006134d282613479565b9050919050565b60005b838110156134f75780820151818401526020810190506134dc565b83811115613506576000848401525b50505050565b6000601f19601f8301169050919050565b61352681613451565b811461353157600080fd5b50565b61353d81613463565b811461354857600080fd5b50565b6135548161346f565b811461355f57600080fd5b50565b6002811061356f57600080fd5b50565b61357b81613499565b811461358657600080fd5b5056fe4465783a2043616e2774207769746864726177206d6f7265207468656e206f6e65206f776e73a26469706673582212205227f6adda22ccc3dab6be83fde38c793a830cec208f1619b4bc7f8146794af964736f6c634300060c0033",
  "immutableReferences": {},
  "source": "//SPDX-License-Identifier: MIT\n\npragma solidity ^0.6.0;\npragma experimental ABIEncoderV2;\n\nimport \"@openzeppelin/contracts/access/Ownable.sol\";\nimport \"@openzeppelin/contracts/math/SafeMath.sol\";\nimport \"@openzeppelin/contracts/token/ERC20/IERC20.sol\";\n\ncontract Dex is Ownable {\n    using SafeMath for uint;\n    \n    struct Token {\n        bytes32 ticker;\n        address tokenAddress;\n    }\n    \n    struct Order {\n        uint id;\n        bytes32 ticker;\n        uint amount;\n        uint filled;\n        uint price;\n        uint side;\n        address trader;\n    }\n    \n    event OrderCreated (\n        uint id,\n        bytes32 indexed ticker, \n        uint indexed price,\n        uint indexed side,\n        uint amount\n    );\n    \n    event Trade (\n        uint id,\n        bytes32 indexed ticker,\n        uint indexed price,\n        uint amount,\n        address seller,\n        address buyer,\n        uint timestamp\n    );\n    \n    enum Side {\n        BUY,\n        SELL\n    }\n    \n            //ticker = > Token Struct\n    mapping (bytes32 => Token) tokens;\n    bytes32[] tokenNames;\n                        // ticker => balance        \n    mapping (address=>mapping(bytes32=>uint)) public traderBalances;\n            //ticker =>    Side =>\n    mapping (bytes32 => mapping(uint => Order[])) public limitOrders;\n    uint nextOrderId = 0;\n    uint nextTradeId = 0;\n\n    \n    bytes32 DAI = bytes32(\"DAI\");\n    \n    function createMarketOrder (bytes32 ticker, Side side , uint amount) external tokenExists(ticker) notDai(ticker) {\n        if (side == Side.SELL) {\n            require(amount <= traderBalances[msg.sender][ticker], \"Dex: Not enough balance\");\n        }\n        \n        Order[] storage orders;\n        if (side == Side.SELL) {\n            orders = limitOrders[ticker][uint(Side.BUY)];\n        } else if (side == Side.BUY) {\n            orders = limitOrders[ticker][uint(Side.SELL)];\n        }\n            \n        uint remaining = amount;\n        uint i = 0;\n        while (i < orders.length && remaining > 0 ) {\n            uint fulfilled = (orders[i].amount - orders[i].filled) > remaining ? remaining \n                                                                                : orders[i].amount - orders[i].filled;\n            remaining = remaining.sub(fulfilled);\n            orders[i].filled = orders[i].filled + fulfilled;\n            \n            if (side == Side.SELL) {\n                traderBalances[msg.sender][ticker] = traderBalances[msg.sender][ticker].sub(fulfilled);\n                traderBalances[msg.sender][DAI] = traderBalances[msg.sender][DAI].add(fulfilled*orders[i].price);\n                traderBalances[orders[i].trader][ticker] = traderBalances[orders[i].trader][ticker].add(fulfilled);\n                traderBalances[orders[i].trader][DAI] = traderBalances[orders[i].trader][DAI].sub(fulfilled*orders[i].price);\n            } else if (side == Side.BUY) {\n                require(traderBalances[msg.sender][DAI] >= fulfilled*orders[i].price, \"Dex: Not enough DAI to buy\");\n                \n                traderBalances[msg.sender][ticker] = traderBalances[msg.sender][ticker].add(fulfilled);\n                traderBalances[msg.sender][DAI] = traderBalances[msg.sender][DAI].sub(fulfilled*orders[i].price);\n                traderBalances[orders[i].trader][ticker] = traderBalances[orders[i].trader][ticker].sub(fulfilled);\n                traderBalances[orders[i].trader][DAI] = traderBalances[orders[i].trader][DAI].add(fulfilled*orders[i].price);\n            }\n\n            emit Trade (\n                nextTradeId,\n                ticker,\n                orders[i].price,\n                orders[i].amount,\n                (side == Side.SELL) ? msg.sender : orders[i].trader,\n                (side == Side.SELL) ? orders[i].trader : msg.sender,\n                block.timestamp\n            ); \n            nextTradeId = nextTradeId.add(1);\n            i++;\n        }\n        //@dev prunning filled orders\n        while(orders.length > 0 && orders[0].amount == orders[0].filled) {\n            //push to start\n            for (i = 1; i < orders.length; i++) {\n                orders[i-1] = orders[i];\n            }\n            //pop last\n            orders.pop();\n        }\n\n    }\n    \n    \n    function createLimitOrder (bytes32 ticker, Side side, uint amount, uint price) external tokenExists(ticker) notDai(ticker) {\n        if (side == Side.SELL) {\n            require(traderBalances[msg.sender][ticker] >= amount, \"Dex: not enough balance\");\n        } else if (side == Side.BUY) {\n            require(traderBalances[msg.sender][DAI] >= amount * price, \"Dex: not enough DAI balance\");\n        }\n        Order[] storage orders = limitOrders[ticker][uint(side)];\n        orders.push(Order(\n            nextOrderId,\n            ticker,\n            amount,\n            0,\n            price,\n            uint(side),\n            msg.sender   \n        ));\n        emit OrderCreated(\n            nextOrderId,\n            ticker, \n            price,\n            uint(side),\n            amount\n        );\n        nextOrderId.add(1);\n        \n        uint i = orders.length - 1 ;\n        if (side == Side.BUY) {\n            while (i > 0 && orders[i].price > orders[i-1].price) {\n                Order memory order = orders[i];\n                orders[i] = orders[i-1];\n                orders[i-1] = order;\n                i--;\n            }\n        } else if (side == Side.SELL) {\n            while (i > 0 && orders[i].price < orders[i-1].price) {\n                Order memory order = orders[i];\n                orders[i] = orders[i-1];\n                orders[i-1] = order;\n                i--;\n            }\n        }\n    }\n    \n    \n    /*@dev it's a delegated transfer so requires preapproval ie \n    * executes wiht ERC20.transferFrom \n    * it could be refactored to uniswap V2 style keeping track of balance\n    */\n    function deposit(bytes32 ticker, uint amount) external tokenExists(ticker) {\n        IERC20(tokens[ticker].tokenAddress).transferFrom(\n            msg.sender,\n            address(this),\n            amount\n            );\n        traderBalances[msg.sender][ticker] =  traderBalances[msg.sender][ticker].add(amount);\n    }\n    \n    function withdraw(bytes32 ticker, uint amount) external tokenExists(ticker) {\n        traderBalances[msg.sender][ticker] = traderBalances[msg.sender][ticker].sub(amount, \"Dex: Can't withdraw more then one owns\");\n         IERC20(tokens[ticker].tokenAddress).transfer(\n            msg.sender,\n            amount\n            );\n    }\n    \n    function getOrders(bytes32 ticker, Side side) external view tokenExists(ticker) notDai(ticker) returns(Order[] memory) {\n        return limitOrders[ticker][uint(side)];\n    }\n    \n    function getTokens() external view returns(Token[] memory) {\n        Token[] memory _tokens = new Token[](tokenNames.length);\n        for (uint i = 0; i < tokenNames.length; i++) {\n            _tokens[i] = tokens[tokenNames[i]];\n        }\n        return _tokens;\n    }\n    \n    function addToken(bytes32 ticker, address tokenAddress) external onlyOwner() {\n        // require tocken hasn't been registered yet\n        require(tokens[ticker].ticker != ticker, \"Dex: Can't overwrite existing token.\");\n        tokens[ticker] = Token(\n            ticker,\n            tokenAddress\n        );\n        tokenNames.push(ticker);\n    }\n    \n    modifier tokenExists(bytes32 ticker) {\n        require(tokens[ticker].ticker == ticker, \"Dex: Token has to be registered\");\n        _;\n    }\n    \n    modifier notDai(bytes32 ticker)  {\n        require(ticker != DAI, \"Dex: Can't crate order for DAI\");\n        _;\n    }\n    \n}\n",
  "sourcePath": "/Users/mieszko/play/blockchain/eth/courses/dex-mvp-eth/contracts/Dex.sol",
  "compiler": {
    "name": "solc",
    "version": "0.6.12+commit.27d51765.Emscripten.clang"
  },
  "schemaVersion": "3.3.3",
  "updatedAt": "2021-03-25T16:47:10.955Z",
  "networkType": "ethereum",
  "devdoc": {
    "kind": "dev",
    "methods": {
      "owner()": {
        "details": "Returns the address of the current owner."
      },
      "renounceOwnership()": {
        "details": "Leaves the contract without owner. It will not be possible to call `onlyOwner` functions anymore. Can only be called by the current owner. NOTE: Renouncing ownership will leave the contract without an owner, thereby removing any functionality that is only available to the owner."
      },
      "transferOwnership(address)": {
        "details": "Transfers ownership of the contract to a new account (`newOwner`). Can only be called by the current owner."
      }
    },
    "version": 1
  },
  "userdoc": {
    "kind": "user",
    "methods": {},
    "version": 1
  }
}